:03000000020228D1
:0C022800787FE4F6D8FD75810B0200031E
:0A023400C0F9A4B0999282F88090FE
:10000300C280C281C282D28075080075093CE4F5C2
:100013000AF50BAE08AF097C007D0A12017D74342A
:100023002DF58274023CF583E493F5A0C2B17F0100
:100033007E00120208D2B1AE08AF097C007D0A121D
:10004300017D74342FF58274023EF583E493F5A0A9
:10005300C2B07F017E00120208D2B0050BE50B701F
:1000630002050AC394F4E50A6480948140A5E50976
:10007300150970021508C3E50864809480508FC287
:1000830080D281750800750905E4F50AF50BAE0801
:10009300AF097C007D0A12017D74342DF582740250
:1000A3003CF583E493F5A0C2B17F017E0012020800
:1000B300D2B1AE08AF097C007D0A12017D74342FE2
:1000C300F58274023EF583E493F5A0C2B07F017E0E
:1000D30000120208D2B0050BE50B7002050AC394A7
:1000E300F4E50A6480948140A5E5091509700215B9
:1000F30008C3E50864809480508FC281D28275085A
:100103000075093CE4F50AF50BAE08AF097C007DE8
:100113000A12017D74342DF58274023CF583E49355
:10012300F5A0C2B17F017E00120208D2B1AE08AFC2
:10013300097C007D0A12017D74342FF58274023E1E
:10014300F583E493F5A0C2B07F017E00120208D2CA
:10015300B0050BE50B7002050AC394F4E50A64804D
:10016300948140A5E509150970021508C3E50864E3
:0A017300809480508FC282020009C0
:10020800E4FDFCC3ED9FEC9E5015E4FBFA0BBB002C
:0F021800010AEB647B4A70F50DBD00010C80E418
:0102270022B4
:10017D00C2D5EC30E709B2D5E4C39DFDE49CFCEE9D
:10018D0030E715B2D5E4C39FFFE49EFE1201B3C361
:10019D00E49DFDE49CFC80031201B330D507C3E45C
:0601AD009FFFE49EFE220C
:1001B300BC000BBE0029EF8DF084FFADF022E4CC30
:1001C300F875F008EF2FFFEE33FEEC33FCEE9DECF9
:1001D300984005FCEE9DFE0FD5F0E9E4CEFD22ED3F
:1001E300F8F5F0EE8420D21CFEADF075F008EF2F89
:1001F300FFED33FD4007985006D5F0F222C398FD7A
:050203000FD5F0EA2216
:00000001FF
